:020000040000fa
:080000000001040000000000f3
:020000040000fa
:0400080026020000cc
:020000040000fa
:04000c0026020000c8
:020000040000fa
:0400100026020000c4
:020000040000fa
:0400140026020000c0
:020000040000fa
:0400180026020000bc
:020000040000fa
:04001c0026020000b8
:020000040000fa
:0400200026020000b4
:020000040000fa
:0400240026020000b0
:020000040000fa
:0400280026020000ac
:020000040000fa
:04002c0026020000a8
:020000040000fa
:0400300026020000a4
:020000040000fa
:0400340008020000be
:020000040000fa
:04003800260200009c
:020000040000fa
:04003c002602000098
:020000040000fa
:040040002602000094
:020000040000fa
:040044002602000090
:020000040000fa
:04004800260200008c
:020000040000fa
:04004c002602000088
:020000040000fa
:040050002602000084
:020000040000fa
:040054002602000080
:020000040000fa
:04005800260200007c
:020000040000fa
:04005c002602000078
:020000040000fa
:040060002602000074
:020000040000fa
:040064002602000070
:020000040000fa
:04006800260200006c
:020000040000fa
:04006c002602000068
:020000040000fa
:040070002602000064
:020000040000fa
:040074002602000060
:020000040000fa
:04007800260200005c
:020000040000fa
:04007c002602000058
:020000040000fa
:040080002602000054
:020000040000fa
:040084002602000050
:020000040000fa
:04008800260200004c
:020000040000fa
:04008c002602000048
:020000040000fa
:040090002602000044
:020000040000fa
:040094002602000040
:020000040000fa
:04009800260200003c
:020000040000fa
:04009c002602000038
:020000040000fa
:0400a0002602000034
:020000040000fa
:0400a4002602000030
:020000040000fa
:0400a800260200002c
:020000040000fa
:0400ac002602000028
:020000040000fa
:0400b0002602000024
:020000040000fa
:0400b4002602000020
:020000040000fa
:0400b800260200001c
:020000040000fa
:0400bc002602000018
:020000040000fa
:0400c0002602000014
:020000040000fa
:0400c4002602000010
:020000040000fa
:0400c800260200000c
:020000040000fa
:0400cc002602000008
:020000040000fa
:0400d0002602000004
:020000040000fa
:0400d4002602000000
:020000040000fa
:0400d80026020000fc
:020000040000fa
:0400dc0026020000f8
:020000040000fa
:0400e00026020000f4
:020000040000fa
:0400e40026020000f0
:020000040000fa
:0400e80026020000ec
:020000040000fa
:0400ec0026020000e8
:020000040000fa
:0400f00026020000e4
:020000040000fa
:0400f40026020000e0
:020000040000fa
:0400f80026020000dc
:020000040000fa
:0400fc0026020000d8
:020000040000fa
:0401000026020000d3
:020000040000fa
:0401040026020000cf
:020000040000fa
:0401080026020000cb
:020000040000fa
:04010c0026020000c7
:020000040000fa
:0401100026020000c3
:020000040000fa
:0401140026020000bf
:020000040000fa
:0401180026020000bb
:020000040000fa
:04011c0026020000b7
:020000040000fa
:0401200026020000b3
:020000040000fa
:0401240026020000af
:020000040000fa
:0401280026020000ab
:020000040000fa
:04012c0026020000a7
:020000040000fa
:0401300026020000a3
:020000040000fa
:04013400260200009f
:020000040000fa
:04013800260200009b
:020000040000fa
:04013c002602000097
:020000040000fa
:040140002602000093
:020000040000fa
:04014400260200008f
:020000040000fa
:04014800260200008b
:020000040000fa
:04014c002602000087
:020000040000fa
:040150002602000083
:020000040000fa
:04015400260200007f
:020000040000fa
:04015800260200007b
:020000040000fa
:04015c002602000077
:020000040000fa
:040160002602000073
:020000040000fa
:04016400260200006f
:020000040000fa
:04016800260200006b
:020000040000fa
:04016c002602000067
:020000040000fa
:040170002602000063
:020000040000fa
:04017400260200005f
:020000040000fa
:04017800260200005b
:020000040000fa
:04017c002602000057
:020000040000fa
:040180002602000053
:020000040000fa
:04018400260200004f
:020000040000fa
:04018800260200004b
:020000040000fa
:04018c002602000047
:020000040000fa
:040190002602000043
:020000040000fa
:04019400260200003f
:020000040000fa
:04019800260200003b
:020000040000fa
:04019c002602000037
:020000040000fa
:0401a0002602000033
:020000040000fa
:0401a400260200002f
:020000040000fa
:0401a800260200002b
:020000040000fa
:0401ac002602000027
:020000040000fa
:0401b0002602000023
:020000040000fa
:0401b400260200001f
:020000040000fa
:0401b800260200001b
:020000040000fa
:0401bc002602000017
:020000040000fa
:0401c0002602000013
:020000040000fa
:0401c400260200000f
:020000040000fa
:0401c800260200000b
:020000040000fa
:0401cc002602000007
:020000040000fa
:0401d0002602000003
:020000040000fa
:0401d40026020000ff
:020000040000fa
:0401d80026020000fb
:020000040000fa
:0401dc0026020000f7
:020000040000fa
:0401e00026020000f3
:020000040000fa
:0401e40026020000ef
:020000040000fa
:0401e80026020000eb
:020000040000fa
:0401ec0026020000e7
:020000040000fa
:0401f00026020000e3
:020000040000fa
:0401f40026020000df
:020000040000fa
:0401f80026020000db
:020000040000fa
:0401fc0026020000d7
:020000040000fa
:10020000cf8d20000e7f24000e018800000000002a
:10021000000020000000e000020032000001200089
:1002200020028800140007008a0007000000e00098
:1002300003003a0060a12200010020000200370004
:100240000000200001002000810f7000010032003a
:1002500014000700000020000000e000020032004f
:100260000000020000000000a41d020000000000c9
:100270000040da000000fe004440a90040382000a1
:100280000000e00003003200002020009001880000
:100290004440a800000006008a1f78008b1f7800e9
:1002a00000000600a1028800800478000000eb0036
:1002b0001f003700e284440054a0b4009905ba003e
:1002c000e284440054a0b4009906ba00e2844400d9
:1002d00054a0b4000006eb00476fde00fd07b2003b
:1002e000ae018800636ce10003003a00eaff0700fa
:1002f0000000eb000e003700606ce10008003a00df
:10030000004deb000a05e800020039003420ec0043
:100310000af0a0008b05e900f9ff3e000400370059
:100320006168e100010032000086eb000b0007006d
:1003300019c7ba001905ba000e04e00003003a001c
:100340000a00e000dbff3a0000000600fe07b200f2
:10035000ae0288008a047800f5ff37000cd0a300b5
:10036000e20f4d001c00390089027800354dba00bb
:100370000a05e800020039003420ec000af0a00071
:100380008b05e9000f003200254dba000a05e80090
:10039000020039003420ec000af0a0008b05e900cf
:1003a000080032000c00e0000600320015cdba0053
:1003b0000a05e800020039003420ec000af0a00031
:1003c0008b05e9008984e80054a0b4000b00e0002c
:1003d000e2ff3a00000006009902ba00055d7800cd
:1003e0008b05e900f7ff3200c82ade00055d7800c2
:1003f0008b05e900f3ff32000c00e000f1ff320052
:1004000019ddba00eeff3700a20d04000000000065
:100410003600f800809fbe00829fbe00849fbe0011
:10042000869fbe000000fa00540407008860a900ff
:100430000080fa004f03be004f02be004f01be0015
:100440004f00be003600f900004006000040da0010
:100450000000fe000000050003f0a200889fbe001f
:100460008a9fbe008c1f7800150107001c01330015
:100470006450e1004f0032006420e100520032007d
:1004800003826c0007003b000905d0000306d00082
:10049000820f54000c065d00020039000200320099
:1004a00089017800030678008582550004003d002c
:1004b0000003fd008103fd008502ea008b854200f8
:1004c000840f720002003b0060001000e080180002
:1004d0006011b8000005eb007a28e1000a0039003d
:1004e00006007800c75ddd00f707b2008780750061
:1004f0002d003700828171000a01780061056000db
:100500008180d1000080d3008502e900f9ff3b0023
:10051000060440008784480002003b006004140089
:10052000e0841c000988a300070032008a81710062
:1005300082817100610164008904d1000884d300c4
:100540008b05e800170037000978a30013003a0074
:100550000b00e000130034008b05e90008044400a0
:1005600089844c000a4474000978a3000d003a0005
:100570000b00e000070034008b05e900080444008c
:1005800089844c0001003a000b0020000978a30088
:10059000f7ff32000001eb0002003700828171009a
:1005a0000a0178008b0007000cf0a70001f0a00002
:1005b000d40037006420e10002003a00838f6c0011
:1005c000d40033000801be000200be00cd00370099
:1005d000889fbe008a9fbe008c1f7800b80007006d
:1005e000bf00330003866c006450e1002e0032002f
:1005f0006420e100330032006150e1002f0032003e
:100600006120e1003100320085855500eb07b00024
:1006100009002000080420000500370008044400f9
:1006200089844c000a0031000603430087834b0095
:100630000001530081815b00f8ff33000203be001c
:100640000800a0000804440089844c00f6ff39002b
:10065000c639dd0083017300010032001300200061
:100660008904d1000884d3000998a3000500320052
:100670000800a7000300a0008904d1000884d3006b
:100680008b05e8008904d1000884d3000001eb0049
:100690000281d2004f00070001f0a1000cf0a7007a
:1006a00001f0a000970037006420e10099003200bb
:1006b0000801be000200be00f7ff37006120e10024
:1006c000940032006000b800f3ff37000000200003
:1006d00001f82700f0ff37000001be0063000700ab
:1006e0000470a70003f0a1006509b10016003200f4
:1006f0000d0035006828e10006003500f0ff2f00ee
:10070000f1ff27000300e00013003b000100280078
:100710000000050000004000818048008502e900db
:10072000fcff3a0008003700f88f420002003c004e
:100730008000eb00000005008100d1000080d300a4
:100740008502e800fcff3a000300e00002003b00e5
:1007500060001000e0801800000006000001be00ec
:10076000420007000470a70003f0a10003f8a300f3
:1007700013003a006509b10010003200090035008d
:100780006928e10002003500010028000000050092
:1007900000004000818048008502e900fcff3a002b
:1007a00000000600f88f4200050035008100d100ee
:1007b0000080d3008502e800fcff3a00000006003c
:1007c0008000eb00000005004f89de008201780008
:1007d0008700370081002000618055000b003d003c
:1007e0000b00200061fe2f000100e1001d0034001d
:1007f00082817100610164008904d1000884d30002
:100800000000e800faff3a00710020006100640077
:10081000030070000200600009003200610444001f
:10082000e0844c000988a500050032008b05e80033
:100830006808e10002003a008904d1000884d3006e
:10084000f20f20000258e10005003d00c75ddd0009
:10085000f907b200898075000800780000000600e2
:100860000bf827008b00780000000500c70ade00a7
:10087000f107b200f50fb20008003200e1cf4200ec
:10088000020032000170a00024000500810f7000fa
:10089000010032000408050044000500810f7000cb
:1008a00002003a00140005008502e9000000400043
:1008b00081c04800fcff3b000170a000240005003f
:1008c0000004be00e9ff07000003be000405be00ef
:1008d0000200be00e5ff0700844f7500000006001f
:1008e0000200be006450e100050036006420e10013
:1008f000020036000968a30001003a000800be00ab
:100900000160a0004f0678004f05be004f04be00f6
:1009100000000600f0ff2f00f1ff2700f9ff37006d
:10092000889fbe008a9fbe008c1f7800e4ff0700ee
:10093000ebff330003866c006450e10024003200ba
:100940006420e100270032006150e1002200320003
:100950006120e100210032008b854200eb07b100ed
:100960000134b800003ab8000804420089844a0003
:10097000013ab8000030b8008880400009014a0000
:10098000040033000000400081804800020149005b
:100990008b05e900c909dd00830170000100320008
:1009a00013002000c814de004814dd004709de00f3
:1009b0001200b200c808de000884700085ff07003e
:1009c00001f0a1000cf0a70001f0a000cdff37005e
:1009d0006120e100cfff32000801be000200be002e
:1009e000f7ff37006150e100fcff3a00c9ff370014
:1009f000881f7800030478000300e00007003d0032
:100a000060001000e080180060011900e08119000a
:100a100002003b0001f02d00030037000400070036
:100a200008f0a70001f0a0004f04780000000600c5
:100a3000889fbe008a9fbe00008270000402710081
:100a400004827100260032000004be000200be00d5
:100a50006011b8006b092000950220000182cf00d0
:100a60000a0039000541b1000082cf0007003900bb
:100a70000541b1000982cf00040039000541b100f1
:100a80000882cf00010039000541b1000542520043
:100a9000120032000a003b00828171006101640093
:100aa0008100d1000080d3008984d3000884d30062
:100ab0008b05e8000442e800f7ff3a000700370022
:100ac0000804440089844c000000480081804800ec
:100ad0008b05e9000442e900f9ff3a003dff0700f9
:100ae0004f05be004f04be000000060080017800e4
:100af00002003700b15978000201e9000200e0006d
:100b0000fcff3a0000000600020037000204e0008b
:100b10000b0032008101780000027800304178003b
:100b2000b14f5100f9ff320010002000144278004c
:100b3000934f5200030031000080eb0000000600dc
:100b40000000eb000000060000017800b1417800d1
:100b5000035978000304e000fcff3a00000006009f
:100b600080007800010178003104e000fdff3a00c8
:080b7000000051000000060026
:020000040000fa
:100b78005f5f0000050800000000000000000000a2
:100b88000000000000fa00000000000000e0000083
:100b980000e0000000280000fe280000fe280000f9
:100ba80024540000fe54000048c40000c81000008f
:100bb800264600006c9200006a0400000a0000004b
:100bc80010e00000c000000000380000448200006f
:100bd8000000000082440000380000005438000083
:100be800fe38000054100000107c000010100000b7
:100bf800000000000e0c00000010000010100000a3
:100c080010100000000000000606000000040000ac
:100c180008100000204000007c8a000092a200001a
:100c28007c00000042fe0000020000004e9200001e
:100c3800929200006284000082920000b2cc000010
:100c48001828000048fe000008e40000a2a20000e6
:100c5800a29c00003c520000929200008c8200008e
:100c68008488000090e000006c92000092920000de
:100c78006c6200009292000094780000000000006e
:100c88002800000000000000022c00000000000006
:100c980000100000284400008228000028280000d6
:100ca80028280000008200004428000010400000ae
:100cb800809a0000906000007c820000ba9a0000d0
:100cc800723e000048880000483e0000fe92000086
:100cd800929200006c7c0000828200008244000036
:100ce800fe820000828200007cfe000092920000da
:100cf80092820000fe90000090900000807c00002e
:100d0800828200008ace0000fe1000001010000051
:100d1800fe00000082fe00008200000004020000c5
:100d280082fc000080fe00001028000044820000c1
:100d3800fe0200000202000002fe0000403800002f
:100d480040fe0000fe20000010080000fe7c0000ad
:100d580082820000827c0000fe90000090900000db
:100d6800607c0000828a0000847a0000fe90000007
:100d7800989400006264000092920000924c000077
:100d8800c0800000fe800000c0fc000002020000dd
:100d980002fc0000f804000002040000f8fc000057
:100da800021c000002fc0000c628000010280000f9
:100db800c6c00000201e000020c00000869a000067
:100dc80092b20000c2000000fe8200008282000091
:100dd800402000001008000004000000828200008b
:100de80082fe000020400000804000002002000039
:100df800020200000202000000c00000e010000033
:100e0800000400002a2a00001c020000fe14000052
:100e1800222200001c1c00002222000022140000d4
:100e28001c22000022140000fe1c00002a2a0000d8
:100e38002a180000001000007e90000040300000da
:100e48004a4a0000523c0000fe100000202000002a
:100e58001e00000022be0000020000000402000084
:100e680002bc000000fe0000081400002200000080
:100e780000820000fe020000003e0000201e00006c
:100e8800201e00003e100000202000001e1c000054
:100e980022220000221c00003e180000242400002a
:100ea8001818000024240000183e00003e1000001e
:100eb80020200000101200002a2a00002a24000026
:100ec80020200000fc220000243c00000202000058
:100ed800043e00003804000002040000383c000012
:100ee800020c0000023c000022140000081400005c
:100ef800223200000a0a00000a3c000022260000f4
:100f08002a32000022000000106c0000820000005d
:100f180000000000fe00000000000000826c0000dd
:100f28001000000040800000402000004000000049
:100f3800dff700005aff0000ff070000fa7f0000fb
:100f4800fff70000bbf7000038ff000000000000ba
:100f580059ff00001f0000005c89000045a1000047
:100f6800d0dd0000f45c0000e07f000043d3000007
:100f7800eafb0000bd640000dbff0000a7d800000a
:100f8800ff070000110000005104000021bc000010
:100f980055ad00002003000055ad0000adbd0000b8
:100fa800118800004553000060fc0000999900007a
:100fb80000880000afec0000f18d0000f14900004e
:100fc800692a0000692a00007a0600001a900000c9
:100fd800b2f80000ff0500004d6b00004d6b0000eb
:100fe8009f1c000004b10000deff00004424000044
:100ff8001ff80000fbde0000dfff0000a0fe00007d
:1010080024dd00001084000000040000e5af0000ab
:1010180010840000fef7000056fb0000ebca000039
:1010280010480000feff000031f700003fe7000015
:101038009eff0000e07f0000d9ff0000dcae00004a
:1010480010f40000ffe70000daff00009ad6000065
:10105800729700009ad60000b8fd00000ffd00004e
:10106800952500007f86000053740000537400002b
:101078003bb60000fcff0000e007000066360000f9
:101088009cff00001ff8000000800000756600004b
:1010980019000000baba00009b9300008e3d0000c2
:1010a8005d7b0000d3070000994e0000b0c000002f
:1010b800ce180000fff700003cff000036ff0000dc
:1010c800f5fe000010000000bcff000000840000d6
:1010d800646c000020fd000020fa00009adb00008c
:1010e80055ef0000d39f00007daf000092db0000a9
:1010f8007aff0000d7fe000027cc000019fe000090
:101108001bdd00001cb700001080000000f8000084
:1011180071bc00005c430000228a00000efc000045
:101128002cf500004a2c0000bdff000085a200003d
:1011380018c600007d860000d96a000012740000fd
:1011480012740000dfff0000ef07000016440000e3
:10115800b1d5000010040000fbdd000008fb000012
:101168001a4700001dec0000f6f60000ffff000023
:10117800bef70000e0ff0000669e0000504d000032
:10118800004100004d000000303100002f30000009
:1011980031000000303000003a300000303a0000e2
:1011a8003030000000540000686500002054000042
:1011b800686500006d650000003e00000044000006
:1011c80069730000706c000061790000204d000018
:1011d8006f6400006500000031320000482f0000f5
:1011e8003234000048200000496e00007465000099
:1011f80072760000616c0000005300006574000006
:1012080020540000696d000065000000536500006f
:101218007420000044610000746500000054000060
:10122800686500006d65000073000000416c0000f7
:10123800617200006d0000004578000069740000cc
:1012480000000000e3880000f08800000189000029
:101258000a890000138900001a890000208900000b
:101268002001000000000000000000002001000034
:081278000f000000000000005f
:020000040000fa
:101280000000fa0021338000008020000080600010
:101290000000e00010003a006706a800304180001e
:1012a0000000e00003003200004b2000ab100700fc
:1012b0000100370000000000213380000080200082
:1012c000008060000000e000fbff3a006706a90014
:1012d00010c0b300010037000040eb000080fa00ae
:1012e000000006000000fa00213380000000210009
:1012f000008060000000e0000a003a006726a800b5
:101300000000000021338000000021000080600008
:101310000000e000fbff3a006726a90010c0b30000
:10132000010037000040eb000080fa0000000600da
:101330000000fa006140800010408000808f500063
:1013400019003200503d840000027800a3c0b300b1
:1013500022c6b3008040eb0020c5b300e40c0700b8
:10136000d14584006084200081027800000278006a
:1013700013c0b30012c0b3008040eb0000c3b30041
:10138000610d0700d145840060842000810278004f
:101390000002780013c0b30012c0b3008040eb001d
:1013a00000c3b300580d070071408000204080004a
:1013b000808f500010003200503d84000002780001
:1013c000a3c0b300e2c4b3008040eb0010c4b3007c
:1013d000c70c0700d145840060842000810278009a
:1013e0000002780013c0b30012c0b3008040eb00cd
:1013f00000c3b300440d07008140800030408000ee
:10140000808f500010003200503d840000027800b0
:10141000a3c0b300b2c3b3008040eb00f0c2b3007e
:10142000b30c0700d145840060842000810278005d
:101430000002780013c0b30012c0b3008040eb007c
:1014400000c3b300300d07000080fa000000060062
:101450000000fa00d04080000000e0000e003200e2
:10146000f04584008001780022c0b30051c0b30071
:1014700050c0b300910a0700f045840000027800d4
:1014800023c0b30052c0b30051c0b30050c0b3007a
:10149000130b07000d003700503d840080017800d9
:1014a00022c0b30051c0b30050c0b300830a07008c
:1014b000503d84000002780023c0b30052c0b30046
:1014c00051c0b30050c0b300050b07000080fa0004
:1014d000000006000600fa00404798008e66a9004a
:1014e0008f26a90070002000000f78001d00370033
:1014f000100020002a1007007be6a90010c0b300ee
:10150000204798004e4090008080fb001e0078002d
:101510008088de002e4090000080fb00008060008c
:1015200000f0a7000000ea000000ea004f00de0023
:10153000304798003e4090000080fb006100600052
:101540004e00dd00d133800001e0a10001007000f9
:10155000d033880010002000111007007be6a8009f
:101560001e0fe9001e0078000000e000e0ff3d00d3
:101570008f26a8000080fa00000006000200fa0092
:101580006084200076fd070000017800618420005f
:10159000e082200055fd07008085200070fd0700d7
:1015a0000001780081852000e08520004ffd0700c4
:1015b000d0842000104078000000fb0002fd2f00c6
:1015c00000014100c0842000104078000000fb00b2
:1015d0006a00b90000007800001eb1000000410060
:1015e000104088001040800060408800204080004b
:1015f00070408800a0842000104078000000fb00ac
:1016000002fd2f000001410090842000104078006e
:101610000000fb006a00b90000007800001eb10065
:101620000000410020408800304080008040880059
:1016300070842000104078000000fb0002fd2f00a5
:101640000001410060842000104078000000fb0091
:101650006a00b90000007800001eb10000004100df
:101660003040880090852000104078000000fb008a
:1016700002fd2f000001410080852000104078000d
:101680000000fb006a00b90000007800001eb100f5
:101690000000410040408800c085200010407800d4
:1016a0000000fb0002fd2f0000014100b08520007a
:1016b000104078000000fb006a00b90000007800cc
:1016c000001eb10000004100504088001040800022
:1016d0000000e8001040880011408000c003200096
:1016e000808f500004003a000228ef002040800064
:1016f0000000e8002040880021408000c003200056
:10170000808f500004003a000428ef003040800031
:101710000000e8003040880030408000f80f5000a2
:1017200004003a000628ef00404080000000e80076
:101730004040880050408000e20f500008003a000e
:1017400040408000fc0f500005003a0010002000cf
:1017500040408800504080000000e8005040880071
:1017600050408000e20f50000800320040408000ee
:10177000ff0f500005003a00100020004040880094
:10178000504080000000e800504088005040800039
:10179000ed0f500004003a00100020004040880087
:1017a000100020005040880030408000ec0f5000b6
:1017b00002003c00100020002041880030408000e2
:1017c000ec0f5000010034002428ef00140707003c
:1017d00032408000706626000090b900c288de00aa
:1017e0004f90de0000805000004078000043b000c1
:1017f00080407800608420000148780031408000fb
:10180000706626000089b9004299de004f88de002c
:10181000000051006a01b900020078000080500009
:10182000004078000043b0008040780070842000c1
:101830000148780022408000706626000090b900c0
:10184000c288de004f90de0000805000004078002b
:101850000043b00080407800908420000148780068
:1018600021408000706626000089b9004299de00a0
:101870004f88de00000051006a01b90002007800c4
:1018800000805000004078000043b00080407800a5
:10189000a084200001487800124080007066260075
:1018a0000090b900c288de004f90de00008050003a
:1018b000004078000043b00080407800c0842000e1
:1018c0000148780011408000706626000089b90048
:1018d0004299de004f88de00000051006a01b90025
:1018e0000200780000805000004078000043b00003
:1018f00080407800d0842000014878004240800079
:10190000706626000090b900c288de004f90de00ad
:1019100000805000004078000043b0008040780014
:1019200080852000014878004140800070662600d4
:101930000089b9004299de004f88de0000005100a6
:101940006a01b90002007800008050000040780071
:101950000043b00080407800908520000148780066
:1019600052408000706626000090b900c288de00f8
:101970004f90de0000805000004078000043b0002f
:1019800080407800b08520000148780051408000f8
:10199000706626000089b9004299de004f88de009b
:1019a000000051006a01b900020078000080500078
:1019b000004078000043b00080407800c0852000df
:1019c00001487800d04080000000e000590032005b
:1019d00061842000f08420004bfc07000000e00040
:1019e00054003a0001088000f00b200000816000e4
:1019f0006004200071052000031020008049780059
:101a00008149780082497800113f800000f82f005a
:101a100000806000103f8800113f8000f00f280018
:101a200000806000103f88000008800000017800fe
:101a30000260a00060042000710520000310200057
:101a400080497800814978008249780077c6a900ea
:101a500077e6a9008a66a9008b26a9001a28ef005c
:101a60000000eb00000f78000900370070cab300d7
:101a700098fe0700803e2000b80e070060cab30041
:101a800094fe0700803e2000b40e07001e0fe80001
:101a90001e007800e90f5000f4ff340077c6a9005b
:101aa00077e6a9008b26a900460e070020da200061
:101ab00000000100004180000002780063c3b30011
:101ac000c2c3b30081c1b30030c2b300080b07002a
:101ad000d1458400608420008102780000027800f3
:101ae00023c0b30022c0b300e1c1b30040c0b300c3
:101af000850b0700004180000002780063c3b3003b
:101b0000c2c1b30081c1b3000040eb00f80a070076
:101b1000d1458400608420008102780000027800b2
:101b200023c0b30022c0b300e1c1b30040c0b30082
:101b3000750b070010002000004088000080fa00ac
:101b4000000006000000fa00503d840000418800bb
:101b50006366a8006386a8006306a9006326a9003f
:101b600095e1a80095a1a8009421a900a10c8000ee
:101b70000003200001007000a00c880000e8230092
:101b8000900c88008860a90041058000f0ff2800c3
:101b90000080600000c0a000400588009860a80098
:101ba00083e0a8009206a800413a8000f0ff2300dd
:101bb00000806000403a880049a7a90000c0eb00ff
:101bc0004ae7b700313a8000f0f02f000080600053
:101bd000303a8800513a8000f00f2e0000806000fb
:101be00000c0a000503a8800313a8000f0cf2f00aa
:101bf00000806000303a8800413a800030f82f00c1
:101c000000806000403a88004747a90047e7a800e5
:101c100080002000603a88000080fa000000060082
:101c20000400fa00208c2800000f7800508c280057
:101c300010079800f04080000000e000290032000a
:101c40001141800020418000808f50001900320037
:101c5000513d840010418000000040006e0078007b
:101c6000810278000002780013c0b30012c0b300f4
:101c700081c5b30020c0b300230b0700d145840009
:101c800020418000000040006e0078008102780052
:101c90000002780013c0b30012c0b30081c5b300c6
:101ca00020c0b300180b07002041800010418800bd
:101cb00017003700d145840020418000000040001b
:101cc0006e007800810278000002780013c0b30033
:101cd00012c0b30081c5b30020c0b3000a0b0700d7
:101ce0000b003700513d840020418000000040007f
:101cf0006e007800810278000002780013c0b30003
:101d000012c0b30081c5b30020c0b300fe0a0700b3
:101d10000080fa00000006000000fa0091408000f8
:101d200040408000808f500010003200503d840001
:101d30000002780003c6b300e2c4b30081c5b3005b
:101d400040c4b3006a0a0700d145840080852000a2
:101d5000810278000002780013c0b30012c0b30003
:101d600081c5b30040c4b300e70a0700a14080006a
:101d700050408000808f500010003200503d8400a1
:101d80000002780003c6b30002c6b30081c5b300e9
:101d900060c5b300560a0700d14584008085200045
:101da000810278000002780013c0b30012c0b300b3
:101db00081c5b30040c4b300d30a07000080fa0015
:101dc000000006000400fa00889fbe008a9fbe0043
:101dd0008c9fbe000041800080017800f2c2b300f9
:101de000f1c2b300f0c2b3003408070001003700ad
:101df00000000000f0022000100798000000eb0037
:101e0000000f7800430037009e007800500020004b
:101e100000017800110009008200d8008000fd0058
:101e20000000e0003a003a00dd4584001e00780022
:101e3000000040000000e800418620006146780074
:101e40001e0078000000400041862000e145780037
:101e50001e009000cf80de005bfa07000004be0089
:101e60001e007800000040000000e80041862000cd
:101e7000614078008080fb001e00900000805000d0
:101e8000cf80de0050fa07006266260063f623006a
:101e9000a3fa07000001be000800be006ff90700aa
:101ea0002efa0700004578001e009000cf80de006b
:101eb00045fa07000004be001e0078000000400044
:101ec00041862000614078000080fb00f002b100f4
:101ed000cf80de003cfa07006266260063f623002e
:101ee0008ffa07000001be000800be005bf9070082
:101ef0001afa0700004078008d02780014c0b30081
:101f00008c4178000b4178008a4078003d09070039
:101f10001e0fe800b00320009e007800808f500064
:101f2000b9ff34003eff07007bff070048fd0700b4
:101f30000b4180001e009000cf80de0022fa0700d7
:101f40000004be0060408000000040000000e80087
:101f500041862000614078008080fb001e009000d8
:101f600000805000cf80de0017fa0700d2cc2c0092
:101f7000c3f423006afa07000001be000800be0097
:101f800036f90700f5f90700004578001e009000bb
:101f9000cf80de000cfa07000004be006040800025
:101fa0000000400041862000614078008080fb00f6
:101fb0001e00900000805000cf80de0002fa070073
:101fc000d2cc2c00c3f4230055fa07000001be0058
:101fd0000800be0021f90700e0f907000041780081
:101fe0001e009000804078001e00900000407800a5
:101ff0008b02780014c0b3008a4178000109070001
:102000007140800020408000808f500034003200fa
:102010000b4180001e009000cf80de00eaf907002f
:102020000004be0070408000000040000000e80096
:1020300041862000614078008080fb001e009000f7
:1020400000805000cf80de00dff90700a299290050
:1020500093f1230032fa07000001be000800be0021
:10206000fef80700bdf90700004578001e0090004b
:10207000cf80de00d4f907000004be00704080006d
:102080000000400041862000614078008080fb0015
:102090001e00900000805000cf80de00caf90700cb
:1020a000a299290093f123001dfa07000001be0048
:1020b0000800be00e9f80700a8f907000041780011
:1020c0001e009000804078001e00900000407800c4
:1020d0008b02780024c0b3008a417800c908070049
:1020e0008140800030408000808f500053003200db
:1020f0000b4180001e009000cf80de00b2f9070087
:102100000004be0081408000c00020000001780073
:10211000110009008200d8008000fd006500b900b0
:102120008001780072408000b0aa22000090b900bf
:102130008180d1004f90de0000805000008041007f
:10214000000040000000e800418620006140780067
:102150008080fb001e00900000805000cf80de00d9
:1021600099f90700d2cc2c00c3ec2300ecf907004e
:102170000001be000800be00b8f8070077f90700ac
:10218000004578001e009000cf80de008ef9070029
:102190000004be0081408000b0aa22000089b9007e
:1021a0000381d1004f88de00000051006c01b900ae
:1021b00002007800008050006500b90080017800be
:1021c00072408000b0aa22000090b9008180d10046
:1021d0004f90de0000805000008041000000400071
:1021e00041862000614078008080fb001e00900046
:1021f00000805000cf80de0073f90700d2cc2c00a5
:10220000c3ec2300c6f907000001be000800be00b1
:1022100092f8070051f90700004178001e00900075
:10222000804078001e009000004078008b0278000b
:1022300044c0b3008a417800720807005b44840000
:102240001e009000cf80de005ff907000004be0092
:1022500010408000000040000000e800418620009f
:10226000614078000080fb00f002b100cf80de000a
:1022700055f90700d2cc2c00c3f42300a8f90700bd
:102280000001be000800be0074f8070033f9070023
:10229000004578001e009000cf80de004af907005c
:1022a0000004be0010408000000040004186200075
:1022b000614078008080fb001e009000008050008c
:1022c000cf80de0040f90700d2cc2c00c3f42300fd
:1022d00093f907000001be000800be005ff8070088
:1022e0001ef90700004178001e0090008040780031
:1022f0001e009000004078008b02780014c0b300ec
:102300008a4178003f080700db4584001e009000ea
:10231000cf80de002cf907000004be0020408000c2
:10232000000040000000e800418620006140780085
:102330008080fb001e00900000805000cf80de00f7
:1023400021f90700a299290093f1230074f90700ed
:102350000001be000800be0040f80700fff80700bb
:10236000004578001e009000cf80de0016f90700bf
:102370000004be0020408000000040004186200094
:10238000614078008080fb001e00900000805000bb
:10239000cf80de000cf90700a299290093f12300f9
:1023a0005ff907000001be000800be002bf807001f
:1023b000eaf80700004178001e0090008040780095
:1023c0001e009000004078008b02780024c0b3000b
:1023d0008a4178000b080700db4584001e0090004e
:1023e000cf80de00f8f807000004be003140800016
:1023f000b0aa22000089b9000381d1004f88de0015
:10240000000051006c01b90002007800008050000b
:102410006500b9008001780022408000b0aa220047
:102420000090b9008180d1004f90de000080500004
:1024300000804100000040000000e80041862000cc
:10244000614078008080fb001e00900000805000fa
:10245000cf80de00dcf80700d2cc2c00c3ec2300d8
:102460002ff907000001be000800be00fbf70700bf
:10247000baf80700004578001e009000cf80de000b
:10248000d1f807000004be0031408000b0aa22004d
:102490000089b9000381d1004f88de00000051009f
:1024a0006c01b90002007800008050006500b9009e
:1024b0008001780022408000b0aa22000090b9007c
:1024c0008180d1004f90de000080500000804100ec
:1024d0000000400041862000614078008080fb00c1
:1024e0001e00900000805000cf80de00b6f807008c
:1024f000d2cc2c00c3ec230009f907000001be0078
:102500000800be00d5f7070094f8070000417800e6
:102510001e009000804078001e009000004078006f
:102520008b02780044c0b3008a417800b5070700e9
:1025300053fb07000004e00001003200f104070033
:1025400068fb07000004e00029fe32001a28ef00b3
:10255000bffb070027fe37000e00fa0074fb0700e0
:102560006192280006000900311f7800ee00b100da
:10257000503d8400de0a0700d14584001e0078002b
:10258000810278000002780013c0b30012c0b300cb
:10259000c1c0b30080c0b300db080700d145840090
:1025a0001e009000810278000002780013c0b30082
:1025b00012c0b300b1c1b30060c0b300d2080700bd
:1025c000d14584002e00900081027800000278003e
:1025d00013c0b30012c0b300a1c2b30080c0b300e7
:1025e000c9080700d14584003e00900081027800b0
:1025f0000002780013c0b30012c0b30091c3b3004f
:1026000080c0b300c0080700d14584004e00900090
:10261000810278000002780013c0b30012c0b3003a
:1026200081c4b30080c0b300b7080700d14584005f
:102630005e009000810278000002780013c0b300b1
:1026400012c0b30071c5b30080c0b300ae0807006c
:10265000d14584006e00900081027800000278006d
:1026600013c0b30012c0b30071c5b30060c4b3009f
:10267000a50807000080fa00000006000200fa002a
:102680004627a8000000eb00000f78000000eb00d8
:10269000000f7800010037001e0fe800703e200098
:1026a0009e007800808f5000fbff34004627a90071
:1026b0000000eb00000f7800010037001e0fe8005b
:1026c000703e20009e007800808f5000fbff340099
:1026d00000000000303a8000610060000000e0006f
:1026e000fcff3200903880000080fa0000000600f5
:1026f0000000fa00610a0700d14584000084200030
:10270000810278000002780023c0b30022c0b30029
:10271000e1c1b300a0c0b3007b0807000080fa004d
:10272000000006000a00fa0010002000000f7800e8
:102730000000eb00300798000000eb001007980045
:102740000000eb00400798001002200020079800ce
:10275000e7ff07000100370000000000e1fa070072
:102760000004e000090032001e007800e10f500074
:102770000300340010002000000f78000100370033
:102780001e0fe8003d0a0700d9ff07001e00780071
:10279000e10f500003003200e20f50004f00320002
:1027a000900037009e009000a000200000017800fb
:1027b000110009008200d8008000fd00e20f5000e7
:1027c00002003a0040022000200798009e0090007e
:1027d000a000200000017800110009008200d8004c
:1027e0008000fd00e20f50000200320010022000c5
:1027f00020079800a1ff0700ae00900001017800bb
:10280000110009000200d80040079800d04584005c
:102810008002780014c0b30023c3b300e2c1b30048
:1028200021c3b300a0c0b300f606070093ff070062
:10283000ae00900001017800110009000200d800ec
:10284000800078004e009000808f500062003200bf
:102850008aff0700ae009000010178001100090016
:102860000200d80040079800ce0090003107980081
:102870003e019000706626000090b900c288de001c
:102880004f90de0000805000004078000043b00010
:10289000804078000084200001487800be0090004d
:1028a000706626000089b9004299de004f88de007c
:1028b000000051006a01b900020078000080500059
:1028c000004078000043b000804078001084200071
:1028d0000148780086ff07004200370067ff0700c5
:1028e00000017800100626000090b900c588de00bf
:1028f0004f90de000080500040079800d0458400d3
:102900008002780014c0b30023c3b300f2c3b30045
:1029100021c3b300b0c2b300ba06070057ff0700d7
:1029200000017800100626000090b900c588de007e
:102930004f90de00808050004e009000808f50004d
:10294000270032004dff0700000178001006260026
:102950000090b900c588de004f90de000080500076
:10296000400798004e019000120798001e01900049
:10297000706626000090b900c288de004f90de002d
:1029800000805000004078000043b0008040780094
:1029900030842000014878009e0090007066260078
:1029a0000089b9004299de004f88de000000510026
:1029b0006a01b900020078000080500000407800f1
:1029c0000043b00080407800408420000148780037
:1029d00047ff070003003700000000000100370038
:1029e0000000000026fa07000004e0005aff320051
:1029f000018420008085200053f807006200200039
:102a0000818c28000084200038f80700bd030700ef
:102a100052ff37000000fa0098090700d1458400f2
:102a200070832000810278000002780023c0b30088
:102a300022c0b300e1c1b30040c0b300b207070039
:102a40000080fa00000006000600fa005000200096
:102a50001007980010002000000f78000000eb0025
:102a60002007980085090700d14584007083200065
:102a7000810278000002780023c0b30022c0b300b6
:102a8000e1c1b30040c0b3009f0707000100370059
:102a90000000000013fa07000004e00011003200fb
:102aa0001e007800e20f50000300340010002000e8
:102ab000000f7800010037001e0fe8006f090700c3
:102ac000d1458400708320008102780000027800e4
:102ad00023c0b30022c0b300e1c1b30040c0b300c3
:102ae000890707001e007800e20f50004b003200fb
:102af000e30f500097003200e10f5000e8003a0069
:102b0000defe0700a102200001017800110009008b
:102b10000200d80020079800d24584001e009000d3
:102b200000407800f44040001e0090000040780013
:102b30008202780014c0b30023c3b30001417800bf
:102b400021c3b3002f060700ccfe0700a10220001e
:102b500081017800110009000300d800800078008e
:102b60002e009000808f5000c8003200c3fe070086
:102b7000a102200001017800110009000200d80024
:102b800020079800ae01900033408800324080005a
:102b9000706626000090b900c288de004f90de000b
:102ba00000805000004078000043b0008040780072
:102bb0007083200001487800314080007066260054
:102bc0000089b9004299de004f88de000000510004
:102bd0006a01b900020078000080500000407800cf
:102be0000043b000804078008083200001487800d6
:102bf00022090700d14584007083200081027800fb
:102c00000002780023c0b30022c0b300e1c1b300ca
:102c100040c0b3003c070700a100370097fe070043
:102c200000017800908727000090b900c388de007b
:102c30004f90de000080500020079800d2458400ad
:102c40001e0090000040780043c3b3008340400062
:102c50001e009000004078000042b0008202780020
:102c600014c0b30023c3b3000141780021c3b300f3
:102c7000e405070081fe0700000178009087270027
:102c80000090b900c388de004f90de0080805000c5
:102c90002e009000808f50007e00320077fe0700eb
:102ca00000017800908727000090b900c388de00fb
:102cb0004f90de000080500020079800ae0090008a
:102cc0002140880022408000706626000090b900f4
:102cd000c288de004f90de00008050000040780087
:102ce0000043b00080407800a083200001487800b5
:102cf00021408000706626000089b9004299de00fc
:102d00004f88de00000051006a01b900020078001f
:102d100000805000004078000043b0008040780000
:102d2000b083200001487800d4080700d145840012
:102d300070832000810278000002780023c0b30075
:102d400022c0b300e1c1b30040c0b300ee060700eb
:102d50005300370049fe07000001780090872700e4
:102d60000090b900c388de004f90de000080500064
:102d700020079800d24584001e0090000040780093
:102d800043c5b300834040001e009000004078001f
:102d90000044b0008202780014c0b30023c3b30023
:102da0000141780021c3b3009605070033fe0700f8
:102db00000017800908727000090b900c388de00ea
:102dc0004f90de00808050002e009000808f5000d9
:102dd0003200320029fe07000001780090872700aa
:102de0000090b900c388de004f90de0000805000e4
:102df00020079800ae00900011408800124080002b
:102e0000706626000090b900c288de004f90de0098
:102e100000805000004078000043b00080407800ff
:102e2000d0832000014878001140800070662600a1
:102e30000089b9004299de004f88de000000510091
:102e40006a01b9000200780000805000004078005c
:102e50000043b00080407800e08320000148780003
:102e600086080700d1458400708320008102780025
:102e70000002780023c0b30022c0b300e1c1b30058
:102e800040c0b300a00607000500370000000000a6
:102e900003003700000000000100370000000000c0
:102ea000f7f807000004e000f9fe3200718320000b
:102eb000f084200024f7070092002000e18c280015
:102ec0007083200009f707008e020700f1fe37002b
:102ed0000600fa00500020001007980010002000a3
:102ee000000f78000000eb0020079800c9fe0700e3
:102ef0000100370000000000faf807000004e000bd
:102f0000090032001e007800e20f50000300340078
:102f100010002000000f7800010037001e0fe800ad
:102f200056080700bbfe07001e007800e20f5000a5
:102f300049003200e30f50008c003200e10f5000d6
:102f4000d4003a00cdfd0700a10220000101780065
:102f5000110009000200d80020079800d245840023
:102f60001e00900000407800f44040001e009000d9
:102f7000004078008202780014c0b30023c3b3007d
:102f80000141780021c3b3001e050700bbfd070007
:102f9000a102200081017800110009000300d8007f
:102fa000800078002e009000808f5000b400320026
:102fb000b2fd0700a1022000010178001100090004
:102fc0000200d80020079800ae0090007001200099
:102fd00080017800110009008300d8008000fd0006
:102fe00020079800ae0090003140880032408000f9
:102ff000706626000090b900c288de004f90de00a7
:1030000000805000004078000043b000804078000d
:1030100070832000014878003140800070662600ef
:103020000089b9004299de004f88de00000051009f
:103030006a01b9000200780000805000004078006a
:103040000043b00080407800808320000148780071
:1030500070fe07008f00370088fd07000001780030
:10306000908727000090b900c388de004f90de00f3
:103070000080500020079800d24584001e00900078
:103080000040780043c3b300834040001e0090001e
:10309000004078000042b0008202780014c0b30003
:1030a00023c3b3000141780021c3b300d504070056
:1030b00072fd070000017800908727000090b9009a
:1030c000c388de004f90de00808050002e0090000c
:1030d000808f50006c00320068fd0700000178000e
:1030e000908727000090b900c388de004f90de0073
:1030f0000080500020079800ae009000214088001a
:1031000022408000706626000090b900c288de0070
:103110004f90de0000805000004078000043b00077
:1031200080407800a0832000014878002140800082
:10313000706626000089b9004299de004f88de00e3
:10314000000051006a01b9000200780000805000c0
:10315000004078000043b00080407800b083200039
:10316000014878002bfe07004a00370043fd0700a6
:1031700000017800908727000090b900c388de0026
:103180004f90de000080500020079800d245840058
:103190001e0090000040780043c5b300834040000b
:1031a0001e009000004078000044b00082027800c9
:1031b00014c0b30023c3b3000141780021c3b3009e
:1031c000900407002dfd070000017800908727007c
:1031d0000090b900c388de004f90de008080500070
:1031e0002e009000808f50002900320023fd070040
:1031f00000017800908727000090b900c388de00a6
:103200004f90de000080500020079800ae00900034
:103210001140880012408000706626000090b900be
:10322000c288de004f90de00008050000040780031
:103230000043b00080407800d0832000014878002f
:1032400011408000706626000089b9004299de00b6
:103250004f88de00000051006a01b90002007800ca
:1032600000805000004078000043b00080407800ab
:10327000e083200001487800e6fd070005003700e4
:1032800000000000030037000000000001003700cc
:1032900000000000faf707000004e00015ff32000c
:1032a000718320006084200027f607009200200030
:1032b000e18c2800708320000cf6070091010700c4
:1032c0000dff37000000fa00004180000002780086
:1032d00063c3b300f2c5b30081c1b3000040eb008b
:1032e00003050700010037000000000000408000d7
:1032f0000000e000400032000028ef006140800044
:1033000010408000808f500010003200004180008b
:103310000002780063c3b300f2c5b30081c1b300fb
:1033200040c4b300f2040700d1458400608420004b
:10333000810278000002780023c0b30022c0b300ed
:10334000e1c1b30040c0b3006f05070071408000c9
:1033500020408000808f500010003200004180002b
:103360000002780063c3b300c2c3b30081c1b300dd
:1033700030c2b300de040700d14584006084200021
:10338000810278000002780023c0b30022c0b3009d
:10339000e1c1b30040c0b3005b050700814080007d
:1033a00030408000808f50001000320000418000cb
:1033b0000002780063c3b300c2c1b30081c1b3008f
:1033c0000040eb00ca040700d1458400608420005f
:1033d000810278000002780023c0b30022c0b3004d
:1033e000e1c1b30040c0b300470507004afa070037
:1033f0000bfa070016f80700a1f707000004e00029
:10340000010032003f010700b6f707000004e000aa
:10341000b5ff32001a28ef000df80700b3ff3700a0
:103420000000fa00f04080000000e0007800320068
:10343000304080000000e00002003a00c0002000a0
:103440003040880030408000ed0f50000300340011
:10345000304080006c00500030408800d040800038
:103460000000e000270032000085200010407800b6
:103470000000fb0002fd2f000001410060842000dd
:10348000104078000000fb006a00b90000007800de
:10349000001eb100000041000000e00019003a00e9
:1034a00032408000706626000090b900c288de00bd
:1034b0004f90de0000805000004078000043b000d4
:1034c00080407800f084200001487800314080007e
:1034d000706626000089b9004299de004f88de0040
:1034e000000051006a01b90002007800008050001d
:1034f000004078000043b000804078000085200044
:1035000001487800d04080000000e000b90032009f
:1035100000852000104078000000fb0002fd2f0015
:103520000001410060842000104078000000fb0092
:103530006a00b90000007800001eb10000004100e0
:10354000ed0f5000ab0034000085200010407800e3
:103550000000fb0002fd2f0000014100f08420006c
:10356000104078000000fb006a00b90000007800fd
:10357000001eb100000041006c0150007066260082
:103580000090b900c288de004f90de00008050003d
:10359000004078000043b00080407800f0842000b4
:1035a0000148780000852000104078000000fb00f2
:1035b00002fd2f0000014100f0842000104078003f
:1035c0000000fb006a00b90000007800001eb10096
:1035d00000004100ec005000706626000089b90030
:1035e0004299de004f88de00000051006a01b900f8
:1035f0000200780000805000004078000043b000d6
:10360000804078000085200001487800790037006c
:1036100020418000e10f500004003a00304080005b
:10362000ec0f500001003a000628ef002041800016
:103630000000e00003003a00304080006c004000d1
:1036400030408800d04080000000e00027003200b9
:1036500000852000104078000000fb0002fd2f00d4
:103660000001410060842000104078000000fb0051
:103670006a00b90000007800001eb100000041009f
:103680000000e00019003a00324080007066260019
:103690000090b900c288de004f90de00008050002c
:1036a000004078000043b00080407800f0842000a3
:1036b0000148780031408000706626000089b9001a
:1036c0004299de004f88de00000051006a01b90017
:1036d0000200780000805000004078000043b000f5
:1036e000804078000085200001487800d0408000ac
:1036f0000000e0003f00320000852000104078000c
:103700000000fb0002fd2f0000014100608420004a
:10371000104078000000fb006a00b900000078004b
:10372000001eb10000004100ed0f500031003400d8
:1037300000852000104078000000fb0002fd2f00f3
:1037400000014100f0842000104078000000fb00e0
:103750006a00b90000007800001eb10000004100be
:103760006c014000706626000090b900c288de003f
:103770004f90de0000805000004078000043b00011
:1037800080407800f0842000014878000085200007
:10379000104078000000fb0002fd2f0000014100f6
:1037a000f0842000104078000000fb006a00b9009f
:1037b00000007800001eb10000004100ec00400055
:1037c000706626000089b9004299de004f88de004d
:1037d000000051006a01b90002007800008050002a
:1037e000004078000043b000804078000085200051
:1037f000014878000080fa00000006000e00fa0080
:10380000708d280010079800543d8400733d84009b
:1038100042448400713e8400504484002407980090
:1038200033079800420798005107980060079800f6
:103830000000eb00000f780010060700d14584005f
:103840001e009000810278000002780023c0b300bf
:1038500012c0b30031c2b30070c1b3002a04070024
:1038600001003700000000009ef607000004e000a1
:103870001f003200010607001e007800e40f500010
:10388000030034000000eb00000f78000100370057
:103890001e0fe8001e0078000000400000004700f6
:1038a0002000900080017800f2c2b300f1c2b300a2
:1038b000f0c2b30081010700d14584001e009000d2
:1038c000810278000002780023c0b30012c0b30068
:1038d00031c2b30070c1b3000b0407001e007800b2
:1038e00000004000000047002000900000418800d8
:1038f00063f607000004e000daff32000100070071
:10390000d9ff37000400fa00108e28001007980035
:103910005bf607000004e000890032001000200080
:10392000000f78002628ef00d40507000afb0700e7
:10393000d14584001e0090008102780000027800ca
:1039400013c0b30012c0b300c1c0b30010c0b300b5
:10395000ed030700010037000000000074f60700c7
:1039600060f607000004e00024003200fafa0700c5
:103970001e007800e60f50000a003a00d14584008e
:103980001e009000810278000002780013c0b3008e
:1039900012c0b30071c5b300f0c3b300da0307006f
:1039a00010003700d34584001e009000000178000d
:1039b0001e007800004078006f00b9000000780019
:1039c000004078006c4040008302780002027800da
:1039d00013c0b30012c0b3008040780010c0b30021
:1039e000c90307001e0fe8001e007800e60f500014
:1039f000020034000000eb00000f780020f6070002
:103a00000004e000d4ff32001e007800e30f5000f5
:103a10002b003200e30f500007003c00e10f500084
:103a20000c003200e10f50001e003c000000e000de
:103a300035003200c9ff3700e50f50002800320082
:103a4000e50f500022003500e60f5000280032003c
:103a5000c2ff3700b04080000000e00002003200ea
:103a60001628ef000200370010002000b040880048
:103a7000b04080000000e000050032007f05070034
:103a80001000200030418800cef807000400370005
:103a90007a050700100020003041880009fe070069
:103aa00026003700f040800000f0a7000000ea0088
:103ab0000000e9004f00de00f04088001f003700e2
:103ac000100020003041880001fd07001b00370076
:103ad000100020003041880012fb0700170037005b
:103ae000100020003041880044ff07001300370019
:103af000100020003041880010002000d0408800d5
:103b0000d1fb07000d003700b04080000000e0004e
:103b100005003200590507001000200030418800e0
:103b2000a8f807008dff370054050700100020009b
:103b300030418800e3fd070088ff370087ff37002a
:103b40000080fa00000006000000fa001d060700d1
:103b5000fcf7070049050700c9f507000004e0006d
:103b60000200320067ff0700fbff3700d5fd0700aa
:103b7000f9ff37000400fa00204798003147980009
:103b80002e4090008080fb003e4090000000fb0033
:103b9000008f4000c05b2800104078000080fb00d0
:103ba0009e0f500003003d00c05b280010407800cd
:103bb000080037001e0078000000e00002003d0011
:103bc0000040eb0003003700be4090002e40900004
:103bd00000c040000080fa00000006000200fa0069
:103be000004f780011479800c05b28001040780013
:103bf0009e40780080cf500005003e00d05b28003a
:103c0000104078009e40900080cf500002003600a7
:103c10000000eb0007003700f1c5b3001e4078003c
:103c20009c040700f1c5b3001e4090008404070007
:103c3000c00407000080fa00000006000400fa003b
:103c4000004f78001147980012079800c05b2800c9
:103c5000104078009e40780080cf50000e003e005b
:103c6000d05b2800104078009e40900080cf50002c
:103c70000b003e00f1c5b3001e407800850407002c
:103c8000f1c5b3001e4090006d0407001e009000b7
:103c9000c2040700030037000000000001003700e5
:103ca000000000000080fa00000006000e00fa008c
:103cb000004f9800114f9800224f9800630798001a
:103cc0000e4890008080fb002e4890000080fb0092
:103cd00080805000c05b2800104078000080fb000e
:103ce000808f500070003c001e4890008080fb00d8
:103cf0002e4890000080fb0080805000d05b2800a0
:103d0000104078000080fb00808f500068003c006d
:103d10002e4890000004e00001003a0010c0b300fb
:103d2000204f98002e489000804078000e48900068
:103d300090ff0700204798002e4890000040ea00be
:103d4000804078000e4890008aff070030479800b6
:103d50002e489000804078001e48900085ff0700a4
:103d6000404798002e4890000040ea0080407800cc
:103d70001e4890007fff070050479800be4090000b
:103d8000014f7800430037000e4890009e4f5000ce
:103d9000030039000e4890001e4050000300370019
:103da0009e4078000e48900000c050006047980088
:103db000de40900011479800310037009e48900087
:103dc0001e40900080cf5000040039009e489000b3
:103dd0001e40900000c05000030037009e4090003d
:103de0001e48900000c05000704798007e40900030
:103df0008080fb006e4090000080fb0080804000cf
:103e00002e4890000080fb00808f50001500340089
:103e10007e4090008080fb007e4090000080fb0090
:103e20000088b900000178006e4090008080fb009f
:103e30006e4090000080fb000088b9000000780010
:103e4000000141002e4890008080fb002e48900029
:103e50000080fb000088b90000007800800f51004e
:103e600004003c006e0190009e4090001e407800cf
:103e700072ff07001e4090000040e80010479800c5
:103e80009e4090004e40900080cf5000cbff390004
:103e90001e4fe8002e4090009e40780080cf5000da
:103ea000b9ff3900030037000000000001003700af
:103eb000000000000080fa00000006000c00fa007c
:103ec0006047980071479800024f98005307980088
:103ed0000040eb00104798000040eb00204798009e
:103ee0000040eb00304798000000eb0020079800ee
:103ef0000e4890000004e00001003a0010c0b3003a
:103f0000004f98000e4890000040e800004f7800f5
:103f10000040eb00104798000040eb00204798005d
:103f20000000eb0020079800670037001e4090005b
:103f30000000fb00000040000000e800ae00900020
:103f400000804000200798001e4090000040e800dc
:103f5000104798002e0090000000e0005a00350045
:103f60004c003700ae4090003147980043003700c6
:103f7000ae4090007e40900080c040003e419000e6
:103f80006e409000004041005e0190002bff070052
:103f90002e409000fe40900080c050003e419000b6
:103fa0006e409000004041005e01900023ff07003a
:103fb000ae4090007e40900080c040003e409000a7
:103fc0006e419000004051005e0190001bff070011
:103fd0002e409000fe40900080c050003e40900077
:103fe0006e419000004051005e01900013ff0700f9
:103ff000be4090007e40900080c040002e41900066
:104000006e409000004041005e0190000bff0700f1
:104010003e409000fe40900080c050002e41900035
:104020006e409000004041005e01900003ff0700d9
:10403000be4090007e40900080c040002e40900026
:104040006e419000004051005e019000fbfe0700b1
:104050003e409000fe40900080c050002e409000f6
:104060006e419000004051005e019000f3fe070099
:104070003e4090000040e800304798003e409000ed
:104080009e4f5000baff35002e4090000040e800df
:1040900020479800ae4090001e40900080cf500016
:1040a000b0ff35009e00fb00e0ff2f000088b90044
:1040b000000078000000e800ae00900000804000a2
:1040c000200798001e4fe9001e4090009e40780097
:1040d00080cf500095ff3d000080fa0000000600f0
:1040e0000a00fa004047980051479800624798003c
:1040f00073479800440798007e4090000080fb00c2
:104100000000d10000407800ee40900000c0400068
:104110006047980064003700ee409000014f78003f
:104120000040eb00104798000000eb0010079800db
:10413000560037009e4090005e40900080c04000d6
:104140001e4178004e409000004041004e0190001a
:10415000bafe07001e409000de40900080c0500074
:104160001e4178004e409000004041004e019000fa
:10417000b2fe07009e4090005e40900080c040006c
:104180001e4078004e419000004051004e019000ca
:10419000aafe07001e409000de40900080c0500044
:1041a0001e4078004e419000004051004e019000aa
:1041b000a2fe07009e4078005e40900080c0400054
:1041c0001e4190004e409000004041004e01900082
:1041d0009afe07001e407800de40900080c050002c
:1041e0001e4190004e409000004041004e01900062
:1041f00092fe07009e4078005e40900080c0400024
:104200001e4090004e419000004051004e01900031
:104210008afe07001e407800de40900080c05000fb
:104220001e4090004e419000004051004e01900011
:1042300082fe07001e4090000000fb0000004000ce
:104240000000e8009e0090000080400010079800e9
:104250001e4090000040e800104798001e009000ab
:104260000000e000090035009e00fb00e0ff2f0089
:104270000088b900000078000000e8009e0090006f
:1042800000804000100798001e4fe9001e4090007b
:104290009e40780080cf5000a6ff3d006e40900009
:1042a0000040e900604798007e4090000080fb00dd
:1042b0000000ea004f00de0000407800fe40900061
:1042c0008140e900714798000004e00092ff3a0045
:1042d0000080fa00000006000600fa0010079800af
:1042e000210798001e009000104f78002e009000cb
:1042f000904078001e009000014878002e00900049
:104300001e4878000080fa00000006000800fa004d
:10431000000f7800110798002207980033079800d3
:104320001e007800904078002e0090001040780029
:1043300080cf500006003600ae0090001e007800ce
:10434000e5ff0700be0090001e009000e2ff07009e
:104350000080fa00000006000800fa00000f780054
:104360001107980022079800330798001e0090005c
:10437000904078003e0090001040780080cf5000c0
:1043800006003600ae0090001e007800d2ff070045
:10439000be0090001e009000cfff07000080fa00d2
:1043a000000006000600fa00004f78001147980050
:1043b00022479800230798002e409000e14f5000bc
:1043c00005003e002e0190009e4090001e407800a7
:1043d0001afe0700090037002e4090000080fb0005
:1043e0000000d10000407800ae019000004178004c
:1043f0009e4090001e407800b0fe07000080fa004a
:10440000000006001000fa00889fbe00004f9800d0
:10441000114f9800224f9800334f9800444f980056
:10442000750798004e4890000004e00001003a0033
:1044300010c0b300404f9800ae4890000e48900066
:1044400000c0500020479800be4890001e489000d1
:1044500000c05000304798003e4090000004e0004b
:1044600017003a002e4090000004e0009a0032004d
:10447000eb0147006a014700e90047006800470078
:10448000a2ff07008e489000014f78000700370018
:104490001e489000fe0190004e4990008040780038
:1044a0001e407800bfff07001e4fe8002e48900016
:1044b0009e40780080cf5000f5ff3600890037001d
:1044c0002e4090000004e00018003a003e409000aa
:1044d0000004e00082003200eb0147006a0147005f
:1044e000e9004700680047009bff07009e489000d6
:1044f00011479800080037000e489000fe01900018
:104500004e4990009e409000a6ff07001e4090007c
:104510000040e800104798003e4890009e40900000
:1045200080cf5000f4ff36006e0037002e40900020
:104530000000fb008000780001f0a7008100ea0085
:104540003e4090000000fb0000f0a7000000ea00e1
:10455000808f50002f0034003e4090000000fb0090
:10456000cf80de0098f007000004be002e409000cf
:104570000000fb00cf80de0093f007000001be00ca
:104580000800be0012f007002007980031079800cd
:10459000eb0147006a014700e90047006800470057
:1045a0005aff07008e489000014f78001400370032
:1045b0009e80fb000e4890000080fb0000805000b1
:1045c000cf80de0080f007002e019000be01900039
:1045d000d3f0070040f0070000007800804078002a
:1045e0001e48900000c04000fe0190004e4990001f
:1045f000804078001e4078006aff07001e4fe800e8
:104600002e4890009e40780080cf5000e8ff39008f
:10461000340037002e4090000000fb00cf80de0009
:1046200069f007000004be003e4090000000fb005f
:10463000cf80de0064f007000001be000800be006d
:10464000e3ef07002007980031079800eb014700cf
:104650006a014700e9004700680047003eff070085
:104660009e48900011479800160037001e409000a9
:104670008080fb001e4890000080fb0000805000fe
:10468000cf80de0050f007002e019000be019000a8
:10469000a3f0070010f007000000780080407800c9
:1046a0000e48900000c04000fe0190004e4990006e
:1046b0009e4090003bff07001e4090000040e80035
:1046c000104798003e4890009e40900080cf5000d8
:1046d000e6ff39000300370000000000010037004a
:1046e000000000004f04be000080fa000000060039
:1046f0000800fa0020479800314798004247980088
:104700005347980034079800ce4090002e40900008
:10471000e0010700de4090003e409000c801070025
:10472000ae409000014f780010003700be4090006e
:1047300011479800050037003e009000170207005f
:104740001e4090000040e800104798001e40900076
:104750008080fb005e4090000080fb000000e800cd
:10476000808f5000f4ff35001e4fe8009e80fb0054
:104770004e4090000080fb000000e800808f500059
:10478000eaff35000080fa00000006001000fa0081
:10479000004f9800114f9800224f9800334f980017
:1047a000444f9800750798004e4890000080fb0029
:1047b00001fe2f0080804000e05b28001040780060
:1047c0000080fb000088b9000000780080007800bd
:1047d000005c2800008f40000000eb0010079800ec
:1047e0003c0037001e007800904078006147980038
:1047f0001e0fe800f05b2800104078008080fb006e
:104800003e4890000080fb000088b900000078005e
:1048100020079800270037006e4090000080fb00c2
:1048200061006000004078000004e00018003200e1
:104830002e009000804078001e48900080c040000c
:104840003e48900000c040008041e9001e009000fa
:10485000804078000e48900080c040002e489000b4
:1048600000c040000041e9002e0090008040780028
:104870001e48900080c040001e009000004278005a
:104880000e489000004042007e02900098ff070012
:104890006e4090000080fb000000d100604798004f
:1048a0003e4890000080fb00ae0090000080500069
:1048b000200798002e0090000000e000d6ff3a008c
:1048c0002e4890000080fb009e0090000080400079
:1048d00010079800e05b2800104078008080fb0003
:1048e0002e4890000080fb000088b900000078008e
:1048f000800078001e009000808f5000b9ff3e00bd
:104900000080fa00000006000800fa00004f78005e
:1049100011479800224798003347980024079800d1
:1049200035079800150037002e00900010407800e1
:10493000ae0090008100e80021079800be029000c0
:1049400000427800be4190002e4190009e409000b1
:104950001e4078008dff0700e05b280010407800c3
:10496000ae4090008180fb000088b9000000780014
:10497000004078001e404000004fe8002e009000ec
:10498000104078000004e000e7ff3a000080fa00e1
:10499000000006001400fa00204f9800314f9800e4
:1049a00062079800634f9800744f9800050f9800b5
:1049b0002657980000c2b300604798006e489000e8
:1049c0000004e000020032006e4890000100370051
:1049d00010c0b300604f98007e4890000004e000d3
:1049e000020032007e4890000100370010c0b30082
:1049f000704f98000040eb00004f780051003700e6
:104a00000e0890001001be001207980023079800be
:104a10000e08900064004000000f98001e407800cf
:104a2000fe4890008180fb000088b90000007800fb
:104a3000804078003e48900000c0400070479800d9
:104a40000040eb0010479800390037001e0190002d
:104a5000ae0190001000200001002000020278004a
:104a600003017800800178000100780003026200f1
:104a7000000061008000eb00c000dd0000002000ad
:104a80000001be006120b800000171008181710049
:104a9000e00f5100e08f59001c003a006e4090007a
:104aa0008080fb001e4090000080fb0000805000d2
:104ab00000407800ee4890008180fb000088b9003b
:104ac00000007800804078002e48900000c0400030
:104ad000004f9800fe4090007e48900000c04000cb
:104ae0008040e9000e4990006e489000004041006f
:104af0000040e9006e02900081417800004178009a
:104b0000fe4090000e489000f9fe07001e00900045
:104b1000ae0090008100d1000080d3001007980003
:104b2000210798001e4090000040e80010479800c0
:104b30009e4090006e40900080cf5000c3ff39002f
:104b40001e4fe8002e5090009e40780080cf50000d
:104b5000abff39000080fa00000006000200fa00f6
:104b6000000f7800c00520009e007800808f500064
:104b700004003200d00520009e007800808f500095
:104b800009003a00c00520009e007800808f500088
:104b900002003a0010c0b3000100370020c0b3008b
:104ba00028e8b700010037002868ef000080fa000d
:104bb000000006000200fa00004f7800114798003c
:104bc000090107000004a2000004e0000200320016
:104bd0000080eb000c0037001e40780063010700e6
:104be000004f78001e4090006001070010479800b9
:104bf0004a0107001e80fb00c800dd001e40900037
:104c00000080fb00010070000080fa000000060038
:104c10000200fa0020c3b300004f780012c0b300b6
:104c20008e007800000a20006600070000c2b30072
:104c3000004f780012c0b3008e007800100a2000e8
:104c4000600007000080fa00000006000000fa0083
:104c50000041eb008000eb00c00520005900070078
:104c60008f26a9008e66a8000080fa0000000600ca
:104c70000000fa000041eb008000eb00d0052000ae
:104c8000500007008f26a9008e66a8000080fa0059
:104c9000000006000800fa000001780031079800c3
:104ca0003e0090004800de00004f78003e0090007b
:104cb000104798001e80fb004300de000040780093
:104cc000204798001e80fb00670060004300dd0065
:104cd000804078001e4090000080fb004500de0010
:104ce0000040780000c07000304798001e409000df
:104cf0007f406000404798000e80e8008200780006
:104d0000904878008100e8000000e80090487800b2
:104d10008100e8000000e800904878008100e80089
:104d20000000e800020078000080fa0000000600a1
:104d30000600fa0020479800314798004247980043
:104d40002e4090007f406000204798003e40900039
:104d5000f043b200304798004e4090007f40600022
:104d6000404798002e4090000080fb004300dd008b
:104d7000804078003e4090000080fb004300de0051
:104d80000040780000c07000004f78003e40900066
:104d90000080fb004500dd00804078004e40900020
:104da00000c07000104798001e80fb00c800dd00a6
:104db0001e4090000080fb00010070000080fa009f
:104dc000000006000600fa00000f780011079800a6
:104dd00042479800840007000004a2000004e0009d
:104de00014003a008f26a9008e66a9001e007800e4
:104df00000407800dd0007004e4090000004e00015
:104e0000070032008e66a8004e4090000080fb0034
:104e1000800078001e009000fa0007008e66a9004e
:104e20008f26a800bd0007001e0078004bff07007a
:104e300001003700000000000080fa0000000600ba
:104e40000400fa0020479800314798002e40900057
:104e5000f1c5b300814f500001003600f0c5b3002a
:104e6000004f78003e409000f1c5b300814f5000e4
:104e700001003600f0c5b3001047980022c0b3000f
:104e80008e00780050072000ceff07000080fa0057
:104e9000000006000400fa002047980031479800ff
:104ea0002e409000f1c5b300814f50000100360044
:104eb000f0c5b300204798003e409000f1c5b30014
:104ec000814f500001003600f0c5b3003047980014
:104ed0002e40900070404000004f78003e4090000f
:104ee000704040001047980022c0b3008e00780048
:104ef00050012000b3ff07000080fa000000060008
:104f00000200fa00004f78001e4078000004e00024
:104f100002003200e00a200001003700f00a200001
:104f20000041eb008000eb00a6ff07000080fa00c4
:104f3000000006000000fa0028c8bf00e24f500041
:104f4000010032004aff070028c8bf00e24f5000ae
:104f5000020032000080eb000300370080c0eb004d
:104f600000c0eb0013ff07000080fa0000000600fd
:104f70000400fa00004f780011479800224798007b
:104f80002e4190009e4090001e40780068ff070070
:104f9000020007000080fa00000006000200fa008c
:104fa000000f780028c8bf00e14f50000100320018
:104fb00026ff070028c8bf00e14f500007003a0055
:104fc0001e007800804078001e0078004800de0057
:104fd00000407800f7fe07000100370000000000e5
:104fe0000080fa00000006000000fa004f000700f1
:104ff0000080fa00000006000000fa0063a6a90085
:1050000077a6a90077e6a9008a26a9008a66a900e2
:105010008b06a9008b26a9008f06a90067a6a80009
:105020008e26a900100020004c01070067a6a900e9
:10503000200020005a01070067a6a8008f06a800dc
:1050400010002000450107000040eb00acff070006
:10505000800c200041010700f1c5b3000040eb00c7
:105060008cff0700f1c5b3000040eb0074ff0700a0
:10507000e7fe07000080fa00000006000200fa00c8
:1050800001c6b3000040eb0082ff070001c6b30079
:105090000040eb006aff07000040eb00004f780083
:1050a0000d0037000040eb00104798000500370066
:1050b00050418000b9ff07001e4090000040e8000a
:1050c000104798009e409000f0c5b30080cf50007c
:1050d000f7ff36001e4fe800f0c5b3009e40780091
:1050e00080cf5000efff36000080fa00000006007d
:1050f0000200fa00000f78009e00780051418800fd
:10510000deff07000080fa00000006000000fa0041
:10511000504180000080fa00000006000000fa0004
:10512000f5e3a9000080fa00000006000000fa0084
:10513000a11f800000002800008060000000e00047
:1051400007003a0000122000a01f88000424ef008e
:1051500077e6a900f5e3a80010c0b300010037000e
:105160000040eb000080fa00000006000200fa0098
:10517000004f78001e80fb00002088000000000027
:10518000e01f8000610060000000e000fcff3200d2
:1051900000208000004078000080fa000000060037
:1051a0000600fa0010079800210798009e00900062
:1051b000010f7800060037001e00780010407800cc
:1051c000eaff07009e007800804878001e0fe80084
:1051d0002e00900000f0a7000000ea000000ea00a6
:1051e0004f00de0000407800ae0090008100e90032
:1051f000210798000004e000efff3a000080fa0069
:10520000000006000600fa00100798002107980029
:105210009e009000010f7800040037001e00780007
:10522000104078001e0fe800d0ff07002e0090000d
:1052300000f0a7000000ea000000ea004f00de00d6
:1052400000407800ae0090008100e900210798003e
:105250000004e000f1ff3a000080fa0000000600c0
:105260000600fa0010079800210798009e009000a1
:10527000010f7800050037000040eb00bbff07007e
:105280009e007800804878001e0fe8002e009000f5
:1052900000f0a7000000ea000000ea004f00de0076
:1052a00000407800ae0090008100e90021079800de
:1052b0000004e000f0ff3a000080fa000000060061
:1052c0000200fa00004f78001e80fb0000208800da
:1052d0000080fa00000006000000fa0000208000b4
:1052e000004078000080fa00000006000000fa008c
:1052f0006626ef007a26ef008e26ef000080eb0096
:10530000103388000080eb00b03388000080eb0091
:10531000503488007426ef008826ef009c26ef00aa
:105320007226ef008626ef009a26ef006826ef002f
:105330007c26ef009026ef0001088000f00b200093
:10534000008160006004200071052000031020002f
:10535000804978008149780082497800113f8000b7
:1053600000f82f00008060007000b300103f88003c
:10537000113f8000f00f28000080600000b0a00006
:10538000103f8800c13d800000fc2f0000806000bd
:10539000d000b300c03d8800000880000001780004
:1053a0000260a000600420007105200003102000ae
:1053b0008049780081497800824978000080fa00ad
:1053c000000006000000fa00c8ff07008e0007007a
:1053d00009ff07006366a80095e1a800a10c800002
:1053e000f0fc2f00008060000050a000a00c88009e
:1053f00095a1a8009421a9008860a900410580001a
:10540000f0ff28000080600000c0a0004005880078
:105410009860a80040062000900c88006366a800f1
:0c5420006386a8000080fa00000006006f
:020000040000fa
:10542c002808000004000000800000002c08000088
:10543c0002000000800000002e080000ae000000fa
:10544c008200000030303a0030303a00303000003a
:10545c0030303a0030303a003030000030312f001c
:10546c003031000030303a0030303a00303000003b
:10547c0030303a0030303a003030000030312f00fc
:10548c003031000030312f00303100002f07330055
:10549c00073708003b093f000a430c00470f4a003e
:1054ac00114d14004f1752001b541f00552356006a
:1054bc0027572b00572f570033563700553b5400b6
:1054cc003f5243004f474d004a4a4d00474f43005f
:1054dc00523f54003b553700563357002f572b0083
:1054ec005727560023551f00541b5200174f14000a
:1054fc004d114a000f470c00430a3f00093b0800be
:10550c0037073300072f07002b08270009230a0051
:10551c001f0c1b000f17110014141100170f1b0088
:10552c000c1f0a0023092700082b070000080000a5
:10553c00220000008000000022080000060000008d
:10554c0082000000010001000001000000000000ca
:020000040000fa
:10555c000200fa00000f78000300370000fa200068
:10556c0001002000480007001e00780000f0a70092
:10557c000000ea000000ea004f00de000040780066
:10558c001e0fe9000004e000f4ff3a000080fa006e
:10559c00000006000200fa00000f7800050037003a
:1055ac0000082000010020003700070001fe2f003a
:1055bc001e8f40001e007800ff0f5000f8ff3e00c9
:1055cc000300370040002000010020002e000700df
:1055dc001e00780000f0a7000000ea000000ea00be
:1055ec004f00de00004078001e0fe9000004e000d0
:1055fc00f4ff3a000080fa00000006000000fa00f8
:10560c0000002300100888000621ef006821ef003d
:10561c006a21ef000821ef0000702000500888007c
:10562c000c21ef000e21ef007821ef007a21ef0022
